{
  "contractName": "Bank",
  "abi": [
    {
      "inputs": [
        {
          "internalType": "contract DaiToken",
          "name": "_daiToken",
          "type": "address"
        }
      ],
      "stateMutability": "nonpayable",
      "type": "constructor"
    },
    {
      "inputs": [],
      "name": "daiToken",
      "outputs": [
        {
          "internalType": "contract DaiToken",
          "name": "",
          "type": "address"
        }
      ],
      "stateMutability": "view",
      "type": "function",
      "constant": true
    },
    {
      "inputs": [],
      "name": "fee",
      "outputs": [
        {
          "internalType": "uint256",
          "name": "",
          "type": "uint256"
        }
      ],
      "stateMutability": "view",
      "type": "function",
      "constant": true
    },
    {
      "inputs": [
        {
          "internalType": "uint256",
          "name": "_fee",
          "type": "uint256"
        }
      ],
      "name": "updateFee",
      "outputs": [
        {
          "internalType": "bool",
          "name": "",
          "type": "bool"
        }
      ],
      "stateMutability": "nonpayable",
      "type": "function"
    },
    {
      "inputs": [
        {
          "internalType": "string",
          "name": "_accountName",
          "type": "string"
        }
      ],
      "name": "getAdddressByAccountName",
      "outputs": [
        {
          "internalType": "address",
          "name": "",
          "type": "address"
        }
      ],
      "stateMutability": "view",
      "type": "function",
      "constant": true
    },
    {
      "inputs": [],
      "name": "getMyAccounts",
      "outputs": [
        {
          "components": [
            {
              "internalType": "string",
              "name": "name",
              "type": "string"
            },
            {
              "internalType": "uint256",
              "name": "balance",
              "type": "uint256"
            }
          ],
          "internalType": "struct Bank.Accounts[]",
          "name": "",
          "type": "tuple[]"
        }
      ],
      "stateMutability": "view",
      "type": "function",
      "constant": true
    },
    {
      "inputs": [
        {
          "internalType": "string",
          "name": "_accountName",
          "type": "string"
        }
      ],
      "name": "createAccount",
      "outputs": [
        {
          "components": [
            {
              "internalType": "string",
              "name": "name",
              "type": "string"
            },
            {
              "internalType": "uint256",
              "name": "balance",
              "type": "uint256"
            }
          ],
          "internalType": "struct Bank.Accounts[]",
          "name": "",
          "type": "tuple[]"
        }
      ],
      "stateMutability": "nonpayable",
      "type": "function"
    },
    {
      "inputs": [
        {
          "internalType": "uint256",
          "name": "_amount",
          "type": "uint256"
        },
        {
          "internalType": "string",
          "name": "_accountName",
          "type": "string"
        }
      ],
      "name": "deposit",
      "outputs": [
        {
          "internalType": "bool",
          "name": "",
          "type": "bool"
        }
      ],
      "stateMutability": "nonpayable",
      "type": "function"
    },
    {
      "inputs": [
        {
          "internalType": "uint256",
          "name": "_amount",
          "type": "uint256"
        },
        {
          "internalType": "string",
          "name": "_accountName",
          "type": "string"
        }
      ],
      "name": "withdraw",
      "outputs": [
        {
          "internalType": "bool",
          "name": "",
          "type": "bool"
        }
      ],
      "stateMutability": "nonpayable",
      "type": "function"
    },
    {
      "inputs": [
        {
          "internalType": "string",
          "name": "_from",
          "type": "string"
        },
        {
          "internalType": "string",
          "name": "_to",
          "type": "string"
        },
        {
          "internalType": "uint256",
          "name": "_amount",
          "type": "uint256"
        }
      ],
      "name": "transfer",
      "outputs": [
        {
          "internalType": "bool",
          "name": "",
          "type": "bool"
        }
      ],
      "stateMutability": "nonpayable",
      "type": "function"
    }
  ],
  "bytecode": "0x6080604052600180553480156200001557600080fd5b506040516200241b3803806200241b83398181016040528101906200003b919062000141565b806000806101000a81548173ffffffffffffffffffffffffffffffffffffffff021916908373ffffffffffffffffffffffffffffffffffffffff16021790555033600260006101000a81548173ffffffffffffffffffffffffffffffffffffffff021916908373ffffffffffffffffffffffffffffffffffffffff1602179055505062000173565b600080fd5b600073ffffffffffffffffffffffffffffffffffffffff82169050919050565b6000620000f582620000c8565b9050919050565b60006200010982620000e8565b9050919050565b6200011b81620000fc565b81146200012757600080fd5b50565b6000815190506200013b8162000110565b92915050565b6000602082840312156200015a5762000159620000c3565b5b60006200016a848285016200012a565b91505092915050565b61229880620001836000396000f3fe608060405234801561001057600080fd5b50600436106100935760003560e01c80639b80b050116100665780639b80b05014610146578063be22f54614610176578063dc048cf214610194578063ddca3f43146101c4578063f1215d25146101e257610093565b80630c1eaa5214610098578063298daf5b146100b65780633d12ac2d146100e65780639012c4a814610116575b600080fd5b6100a0610212565b6040516100ad9190611687565b60405180910390f35b6100d060048036038101906100cb91906117f2565b61034a565b6040516100dd9190611687565b60405180910390f35b61010060048036038101906100fb91906117f2565b61062e565b60405161010d919061187c565b60405180910390f35b610130600480360381019061012b91906118c3565b610676565b60405161013d919061190b565b60405180910390f35b610160600480360381019061015b9190611926565b6106fc565b60405161016d919061190b565b60405180910390f35b61017e610da1565b60405161018b9190611a10565b60405180910390f35b6101ae60048036038101906101a99190611a2b565b610dc5565b6040516101bb919061190b565b60405180910390f35b6101cc6110ee565b6040516101d99190611a96565b60405180910390f35b6101fc60048036038101906101f79190611a2b565b6110f4565b604051610209919061190b565b60405180910390f35b6060600460003373ffffffffffffffffffffffffffffffffffffffff1673ffffffffffffffffffffffffffffffffffffffff168152602001908152602001600020805480602002602001604051908101604052809291908181526020016000905b8282101561034157838290600052602060002090600202016040518060400160405290816000820180546102a690611ae0565b80601f01602080910402602001604051908101604052809291908181526020018280546102d290611ae0565b801561031f5780601f106102f45761010080835404028352916020019161031f565b820191906000526020600020905b81548152906001019060200180831161030257829003601f168201915b5050505050815260200160018201548152505081526020019060010190610273565b50505050905090565b6060600073ffffffffffffffffffffffffffffffffffffffff166003836040516103749190611b4d565b908152602001604051809103902060009054906101000a900473ffffffffffffffffffffffffffffffffffffffff1673ffffffffffffffffffffffffffffffffffffffff16146103f9576040517f08c379a00000000000000000000000000000000000000000000000000000000081526004016103f090611be7565b60405180910390fd5b3360038360405161040a9190611b4d565b908152602001604051809103902060006101000a81548173ffffffffffffffffffffffffffffffffffffffff021916908373ffffffffffffffffffffffffffffffffffffffff160217905550600460003373ffffffffffffffffffffffffffffffffffffffff1673ffffffffffffffffffffffffffffffffffffffff16815260200190815260200160002060405180604001604052808481526020016000815250908060018154018082558091505060019003906000526020600020906002020160009091909190915060008201518160000190816104e99190611da9565b50602082015181600101555050600460003373ffffffffffffffffffffffffffffffffffffffff1673ffffffffffffffffffffffffffffffffffffffff168152602001908152602001600020805480602002602001604051908101604052809291908181526020016000905b82821015610623578382906000526020600020906002020160405180604001604052908160008201805461058890611ae0565b80601f01602080910402602001604051908101604052809291908181526020018280546105b490611ae0565b80156106015780601f106105d657610100808354040283529160200191610601565b820191906000526020600020905b8154815290600101906020018083116105e457829003601f168201915b5050505050815260200160018201548152505081526020019060010190610555565b505050509050919050565b60006003826040516106409190611b4d565b908152602001604051809103902060009054906101000a900473ffffffffffffffffffffffffffffffffffffffff169050919050565b6000600260009054906101000a900473ffffffffffffffffffffffffffffffffffffffff1673ffffffffffffffffffffffffffffffffffffffff163373ffffffffffffffffffffffffffffffffffffffff16146106d257600080fd5b600082101580156106e35750606482105b6106ec57600080fd5b8160018190555060019050919050565b6000806000905061070c856113be565b600073ffffffffffffffffffffffffffffffffffffffff166003856040516107349190611b4d565b908152602001604051809103902060009054906101000a900473ffffffffffffffffffffffffffffffffffffffff1673ffffffffffffffffffffffffffffffffffffffff16036107b9576040517f08c379a00000000000000000000000000000000000000000000000000000000081526004016107b090611ec7565b60405180910390fd5b6003846040516107c99190611b4d565b908152602001604051809103902060009054906101000a900473ffffffffffffffffffffffffffffffffffffffff1673ffffffffffffffffffffffffffffffffffffffff1660038660405161081e9190611b4d565b908152602001604051809103902060009054906101000a900473ffffffffffffffffffffffffffffffffffffffff1673ffffffffffffffffffffffffffffffffffffffff1614610885576064836001546108789190611f16565b6108829190611f9f565b90505b6000600460003373ffffffffffffffffffffffffffffffffffffffff1673ffffffffffffffffffffffffffffffffffffffff168152602001908152602001600020805480602002602001604051908101604052809291908181526020016000905b828210156109b4578382906000526020600020906002020160405180604001604052908160008201805461091990611ae0565b80601f016020809104026020016040519081016040528092919081815260200182805461094590611ae0565b80156109925780601f1061096757610100808354040283529160200191610992565b820191906000526020600020905b81548152906001019060200180831161097557829003601f168201915b50505050508152602001600182015481525050815260200190600101906108e6565b5050505090506000600460006003886040516109d09190611b4d565b908152602001604051809103902060009054906101000a900473ffffffffffffffffffffffffffffffffffffffff1673ffffffffffffffffffffffffffffffffffffffff1673ffffffffffffffffffffffffffffffffffffffff168152602001908152602001600020805480602002602001604051908101604052809291908181526020016000905b82821015610b275783829060005260206000209060020201604051806040016040529081600082018054610a8c90611ae0565b80601f0160208091040260200160405190810160405280929190818152602001828054610ab890611ae0565b8015610b055780601f10610ada57610100808354040283529160200191610b05565b820191906000526020600020905b815481529060010190602001808311610ae857829003601f168201915b5050505050815260200160018201548152505081526020019060010190610a59565b50505050905060005b8251811015610d9257610b61838281518110610b4f57610b4e611fd0565b5b6020026020010151600001518961146d565b15610d7f5785838281518110610b7a57610b79611fd0565b5b6020026020010151602001511015610bc7576040517f08c379a0000000000000000000000000000000000000000000000000000000008152600401610bbe9061204b565b60405180910390fd5b60005b8251811015610d7d57610bfb838281518110610be957610be8611fd0565b5b6020026020010151600001518961146d565b15610d6a5786848381518110610c1457610c13611fd0565b5b602002602001015160200151610c2a919061206b565b600460003373ffffffffffffffffffffffffffffffffffffffff1673ffffffffffffffffffffffffffffffffffffffff1681526020019081526020016000208381548110610c7b57610c7a611fd0565b5b9060005260206000209060020201600101819055508487610c9c919061206b565b838281518110610caf57610cae611fd0565b5b602002602001015160200151610cc5919061209f565b6004600060038b604051610cd99190611b4d565b908152602001604051809103902060009054906101000a900473ffffffffffffffffffffffffffffffffffffffff1673ffffffffffffffffffffffffffffffffffffffff1673ffffffffffffffffffffffffffffffffffffffff1681526020019081526020016000208281548110610d5457610d53611fd0565b5b9060005260206000209060020201600101819055505b8080610d75906120f5565b915050610bca565b505b8080610d8a906120f5565b915050610b30565b50600193505050509392505050565b60008054906101000a900473ffffffffffffffffffffffffffffffffffffffff1681565b6000610dd0826113be565b6000600460003373ffffffffffffffffffffffffffffffffffffffff1673ffffffffffffffffffffffffffffffffffffffff168152602001908152602001600020805480602002602001604051908101604052809291908181526020016000905b82821015610eff5783829060005260206000209060020201604051806040016040529081600082018054610e6490611ae0565b80601f0160208091040260200160405190810160405280929190818152602001828054610e9090611ae0565b8015610edd5780601f10610eb257610100808354040283529160200191610edd565b820191906000526020600020905b815481529060010190602001808311610ec057829003601f168201915b5050505050815260200160018201548152505081526020019060010190610e31565b50505050905060005b81518110156110e257610f39828281518110610f2757610f26611fd0565b5b6020026020010151600001518561146d565b156110cf5784828281518110610f5257610f51611fd0565b5b6020026020010151602001511015610f9f576040517f08c379a0000000000000000000000000000000000000000000000000000000008152600401610f969061204b565b60405180910390fd5b60008054906101000a900473ffffffffffffffffffffffffffffffffffffffff1673ffffffffffffffffffffffffffffffffffffffff1663a9059cbb33876040518363ffffffff1660e01b8152600401610ffa92919061213d565b6020604051808303816000875af1158015611019573d6000803e3d6000fd5b505050506040513d601f19601f8201168201806040525081019061103d9190612192565b508482828151811061105257611051611fd0565b5b602002602001015160200151611068919061206b565b600460003373ffffffffffffffffffffffffffffffffffffffff1673ffffffffffffffffffffffffffffffffffffffff16815260200190815260200160002082815481106110b9576110b8611fd0565b5b9060005260206000209060020201600101819055505b80806110da906120f5565b915050610f08565b50600191505092915050565b60015481565b60006110ff826113be565b60008054906101000a900473ffffffffffffffffffffffffffffffffffffffff1673ffffffffffffffffffffffffffffffffffffffff166323b872dd3330866040518463ffffffff1660e01b815260040161115c939291906121bf565b6020604051808303816000875af115801561117b573d6000803e3d6000fd5b505050506040513d601f19601f8201168201806040525081019061119f9190612192565b506000600460003373ffffffffffffffffffffffffffffffffffffffff1673ffffffffffffffffffffffffffffffffffffffff168152602001908152602001600020805480602002602001604051908101604052809291908181526020016000905b828210156112cf578382906000526020600020906002020160405180604001604052908160008201805461123490611ae0565b80601f016020809104026020016040519081016040528092919081815260200182805461126090611ae0565b80156112ad5780601f10611282576101008083540402835291602001916112ad565b820191906000526020600020905b81548152906001019060200180831161129057829003601f168201915b5050505050815260200160018201548152505081526020019060010190611201565b50505050905060005b81518110156113b2576113098282815181106112f7576112f6611fd0565b5b6020026020010151600001518561146d565b1561139f578482828151811061132257611321611fd0565b5b602002602001015160200151611338919061209f565b600460003373ffffffffffffffffffffffffffffffffffffffff1673ffffffffffffffffffffffffffffffffffffffff168152602001908152602001600020828154811061138957611388611fd0565b5b9060005260206000209060020201600101819055505b80806113aa906120f5565b9150506112d8565b50600191505092915050565b3373ffffffffffffffffffffffffffffffffffffffff166003826040516113e59190611b4d565b908152602001604051809103902060009054906101000a900473ffffffffffffffffffffffffffffffffffffffff1673ffffffffffffffffffffffffffffffffffffffff161461146a576040517f08c379a000000000000000000000000000000000000000000000000000000000815260040161146190612242565b60405180910390fd5b50565b6000816040516020016114809190611b4d565b60405160208183030381529060405280519060200120836040516020016114a79190611b4d565b60405160208183030381529060405280519060200120036114cb57600190506114d0565b600090505b92915050565b600081519050919050565b600082825260208201905092915050565b6000819050602082019050919050565b600081519050919050565b600082825260208201905092915050565b60005b8381101561153c578082015181840152602081019050611521565b8381111561154b576000848401525b50505050565b6000601f19601f8301169050919050565b600061156d82611502565b611577818561150d565b935061158781856020860161151e565b61159081611551565b840191505092915050565b6000819050919050565b6115ae8161159b565b82525050565b600060408301600083015184820360008601526115d18282611562565b91505060208301516115e660208601826115a5565b508091505092915050565b60006115fd83836115b4565b905092915050565b6000602082019050919050565b600061161d826114d6565b61162781856114e1565b935083602082028501611639856114f2565b8060005b85811015611675578484038952815161165685826115f1565b945061166183611605565b925060208a0199505060018101905061163d565b50829750879550505050505092915050565b600060208201905081810360008301526116a18184611612565b905092915050565b6000604051905090565b600080fd5b600080fd5b600080fd5b600080fd5b7f4e487b7100000000000000000000000000000000000000000000000000000000600052604160045260246000fd5b6116ff82611551565b810181811067ffffffffffffffff8211171561171e5761171d6116c7565b5b80604052505050565b60006117316116a9565b905061173d82826116f6565b919050565b600067ffffffffffffffff82111561175d5761175c6116c7565b5b61176682611551565b9050602081019050919050565b82818337600083830152505050565b600061179561179084611742565b611727565b9050828152602081018484840111156117b1576117b06116c2565b5b6117bc848285611773565b509392505050565b600082601f8301126117d9576117d86116bd565b5b81356117e9848260208601611782565b91505092915050565b600060208284031215611808576118076116b3565b5b600082013567ffffffffffffffff811115611826576118256116b8565b5b611832848285016117c4565b91505092915050565b600073ffffffffffffffffffffffffffffffffffffffff82169050919050565b60006118668261183b565b9050919050565b6118768161185b565b82525050565b6000602082019050611891600083018461186d565b92915050565b6118a08161159b565b81146118ab57600080fd5b50565b6000813590506118bd81611897565b92915050565b6000602082840312156118d9576118d86116b3565b5b60006118e7848285016118ae565b91505092915050565b60008115159050919050565b611905816118f0565b82525050565b600060208201905061192060008301846118fc565b92915050565b60008060006060848603121561193f5761193e6116b3565b5b600084013567ffffffffffffffff81111561195d5761195c6116b8565b5b611969868287016117c4565b935050602084013567ffffffffffffffff81111561198a576119896116b8565b5b611996868287016117c4565b92505060406119a7868287016118ae565b9150509250925092565b6000819050919050565b60006119d66119d16119cc8461183b565b6119b1565b61183b565b9050919050565b60006119e8826119bb565b9050919050565b60006119fa826119dd565b9050919050565b611a0a816119ef565b82525050565b6000602082019050611a256000830184611a01565b92915050565b60008060408385031215611a4257611a416116b3565b5b6000611a50858286016118ae565b925050602083013567ffffffffffffffff811115611a7157611a706116b8565b5b611a7d858286016117c4565b9150509250929050565b611a908161159b565b82525050565b6000602082019050611aab6000830184611a87565b92915050565b7f4e487b7100000000000000000000000000000000000000000000000000000000600052602260045260246000fd5b60006002820490506001821680611af857607f821691505b602082108103611b0b57611b0a611ab1565b5b50919050565b600081905092915050565b6000611b2782611502565b611b318185611b11565b9350611b4181856020860161151e565b80840191505092915050565b6000611b598284611b1c565b915081905092915050565b600082825260208201905092915050565b7f54686973206163636f756e74206e616d6520616c72656164792065786973746560008201527f6400000000000000000000000000000000000000000000000000000000000000602082015250565b6000611bd1602183611b64565b9150611bdc82611b75565b604082019050919050565b60006020820190508181036000830152611c0081611bc4565b9050919050565b60008190508160005260206000209050919050565b60006020601f8301049050919050565b600082821b905092915050565b600060088302611c697fffffffffffffffffffffffffffffffffffffffffffffffffffffffffffffffff82611c2c565b611c738683611c2c565b95508019841693508086168417925050509392505050565b6000611ca6611ca1611c9c8461159b565b6119b1565b61159b565b9050919050565b6000819050919050565b611cc083611c8b565b611cd4611ccc82611cad565b848454611c39565b825550505050565b600090565b611ce9611cdc565b611cf4818484611cb7565b505050565b5b81811015611d1857611d0d600082611ce1565b600181019050611cfa565b5050565b601f821115611d5d57611d2e81611c07565b611d3784611c1c565b81016020851015611d46578190505b611d5a611d5285611c1c565b830182611cf9565b50505b505050565b600082821c905092915050565b6000611d8060001984600802611d62565b1980831691505092915050565b6000611d998383611d6f565b9150826002028217905092915050565b611db282611502565b67ffffffffffffffff811115611dcb57611dca6116c7565b5b611dd58254611ae0565b611de0828285611d1c565b600060209050601f831160018114611e135760008415611e01578287015190505b611e0b8582611d8d565b865550611e73565b601f198416611e2186611c07565b60005b82811015611e4957848901518255600182019150602085019450602081019050611e24565b86831015611e665784890151611e62601f891682611d6f565b8355505b6001600288020188555050505b505050505050565b7f44657374696e6174696f6e206163636f756e74206e6f74206578697374000000600082015250565b6000611eb1601d83611b64565b9150611ebc82611e7b565b602082019050919050565b60006020820190508181036000830152611ee081611ea4565b9050919050565b7f4e487b7100000000000000000000000000000000000000000000000000000000600052601160045260246000fd5b6000611f218261159b565b9150611f2c8361159b565b9250817fffffffffffffffffffffffffffffffffffffffffffffffffffffffffffffffff0483118215151615611f6557611f64611ee7565b5b828202905092915050565b7f4e487b7100000000000000000000000000000000000000000000000000000000600052601260045260246000fd5b6000611faa8261159b565b9150611fb58361159b565b925082611fc557611fc4611f70565b5b828204905092915050565b7f4e487b7100000000000000000000000000000000000000000000000000000000600052603260045260246000fd5b7f496e73756666696369656e742042616c616e6365000000000000000000000000600082015250565b6000612035601483611b64565b915061204082611fff565b602082019050919050565b6000602082019050818103600083015261206481612028565b9050919050565b60006120768261159b565b91506120818361159b565b92508282101561209457612093611ee7565b5b828203905092915050565b60006120aa8261159b565b91506120b58361159b565b9250827fffffffffffffffffffffffffffffffffffffffffffffffffffffffffffffffff038211156120ea576120e9611ee7565b5b828201905092915050565b60006121008261159b565b91507fffffffffffffffffffffffffffffffffffffffffffffffffffffffffffffffff820361213257612131611ee7565b5b600182019050919050565b6000604082019050612152600083018561186d565b61215f6020830184611a87565b9392505050565b61216f816118f0565b811461217a57600080fd5b50565b60008151905061218c81612166565b92915050565b6000602082840312156121a8576121a76116b3565b5b60006121b68482850161217d565b91505092915050565b60006060820190506121d4600083018661186d565b6121e1602083018561186d565b6121ee6040830184611a87565b949350505050565b7f54686973206163636f756e7420646f65736e2774206578697374000000000000600082015250565b600061222c601a83611b64565b9150612237826121f6565b602082019050919050565b6000602082019050818103600083015261225b8161221f565b905091905056fea2646970667358221220d1842aebf247ce591599d41dcd1a33f50e98834d5451fcab45cfd7e89d97c20864736f6c634300080f0033",
  "immutableReferences": {},
  "source": "// SPDX-License-Identifier: GPL-3.0\npragma solidity >=0.5.12;\n\nimport \"./DaiToken.sol\";\n\ncontract Bank {\n    DaiToken public daiToken;\n    uint256 public fee = 1;\n    address owner;\n\n    struct Accounts {\n        string name;\n        uint256 balance;\n    }\n\n    mapping(string => address) accounts;\n    mapping(address => Accounts[]) belongingAccounts;\n\n    modifier ownerOnly() {\n        require(msg.sender == owner);\n        _;\n    }\n\n    constructor(DaiToken _daiToken) {\n        daiToken = _daiToken;\n        owner = msg.sender;\n    }\n\n    function updateFee(uint256 _fee) public ownerOnly returns (bool) {\n        require(_fee >= 0 && _fee < 100);\n        fee = _fee;\n        return true;\n    }\n\n    function getAdddressByAccountName(string memory _accountName)\n        public\n        view\n        returns (address)\n    {\n        return accounts[_accountName];\n    }\n\n    function getMyAccounts() public view returns (Accounts[] memory) {\n        return belongingAccounts[msg.sender];\n    }\n\n    function createAccount(string memory _accountName)\n        public\n        returns (Accounts[] memory)\n    {\n        require(\n            accounts[_accountName] == address(0x0),\n            \"This account name already existed\"\n        );\n        accounts[_accountName] = msg.sender;\n        belongingAccounts[msg.sender].push(Accounts(_accountName, 0));\n\n        return belongingAccounts[msg.sender];\n    }\n\n    function deposit(uint256 _amount, string memory _accountName)\n        public\n        returns (bool)\n    {\n        isAccountNameExisted(_accountName);\n        daiToken.transferFrom(msg.sender, address(this), _amount);\n        Accounts[] memory belonging = belongingAccounts[msg.sender];\n        for (uint256 i = 0; i < belonging.length; i++) {\n            if (compareString(belonging[i].name, _accountName)) {\n                belongingAccounts[msg.sender][i].balance =\n                    belonging[i].balance +\n                    _amount;\n            }\n        }\n        return true;\n    }\n\n    function withdraw(uint256 _amount, string memory _accountName)\n        public\n        returns (bool)\n    {\n        isAccountNameExisted(_accountName);\n        Accounts[] memory belonging = belongingAccounts[msg.sender];\n        for (uint256 i = 0; i < belonging.length; i++) {\n            if (compareString(belonging[i].name, _accountName)) {\n                require(\n                    belonging[i].balance >= _amount,\n                    \"Insufficient Balance\"\n                );\n                daiToken.transfer(msg.sender, _amount);\n\n                belongingAccounts[msg.sender][i].balance =\n                    belonging[i].balance -\n                    _amount;\n            }\n        }\n\n        return true;\n    }\n\n    function transfer(\n        string memory _from,\n        string memory _to,\n        uint256 _amount\n    ) public returns (bool) {\n        uint256 feeAmount = 0;\n        isAccountNameExisted(_from);\n        require(accounts[_to] != address(0x0), \"Destination account not exist\");\n        if (accounts[_from] != accounts[_to]) {\n            feeAmount = (fee * _amount) / 100;\n        }\n\n        Accounts[] memory senderBelonging = belongingAccounts[msg.sender];\n        Accounts[] memory receiverBelonging = belongingAccounts[accounts[_to]];\n\n        for (uint256 i = 0; i < senderBelonging.length; i++) {\n            if (compareString(senderBelonging[i].name, _from)) {\n                require(\n                    senderBelonging[i].balance >= _amount,\n                    \"Insufficient Balance\"\n                );\n\n                for (uint256 j = 0; j < receiverBelonging.length; j++) {\n                    if (compareString(receiverBelonging[j].name, _to)) {\n                        belongingAccounts[msg.sender][i].balance =\n                            senderBelonging[i].balance -\n                            _amount;\n\n                        belongingAccounts[accounts[_to]][j].balance =\n                            receiverBelonging[j].balance +\n                            (_amount - feeAmount);\n                    }\n                }\n            }\n        }\n\n        return true;\n    }\n\n    function isAccountNameExisted(string memory _accountName) private view {\n        require(\n            accounts[_accountName] == msg.sender,\n            \"This account doesn't exist\"\n        );\n    }\n\n    function compareString(string memory a, string memory b)\n        private\n        pure\n        returns (bool)\n    {\n        if (keccak256(abi.encodePacked(a)) == keccak256(abi.encodePacked(b))) {\n            return true;\n        } else {\n            return false;\n        }\n    }\n}\n",
  "sourcePath": "/Users/s92965/tip/10x-bank/contracts/Bank.sol",
  "compiler": {
    "name": "solc",
    "version": "0.8.15+commit.e14f2714.Emscripten.clang"
  },
  "schemaVersion": "3.4.8",
  "updatedAt": "2022-07-10T16:16:53.626Z",
  "networkType": "ethereum",
  "devdoc": {
    "kind": "dev",
    "methods": {},
    "version": 1
  },
  "userdoc": {
    "kind": "user",
    "methods": {},
    "version": 1
  }
}